:1000000000800010FD000000990500009D05000023
:1000100000000000000000000000000000000000E0
:10002000000000000000000000000000A10500002A
:100030000000000000000000A5050000A905000068
:10004000AD050000AD050000AD050000AD050000E8
:10005000AD050000AD050000AD050000AD050000D8
:10006000AD050000AD050000AD050000AD050000C8
:10007000AD050000AD050000AD050000AD050000B8
:10008000AD050000AD05000001040000AD05000055
:10009000AD050000AD050000AD050000AD05000098
:1000A000AD050000AD050000AD050000AD05000088
:1000B000AD050000AD050000AD050000000000002A
:1000C0003009000000010010300400003009000079
:1000D0000000002000000000300900000040002067
:1000E000000000003005001020000000000000208B
:1000F00000000000004000200000000070B51B4A16
:100100001B4DAA420ED2146850680C32131F196896
:1001100000230029F5D01E591E5004339942FAD805
:10012000AA42F0D3134B9A4212D2D1430024C918E9
:10013000C9080131C900511850681568002300280A
:1001400003D05C5104339842FBD808329142F3D17A
:1001500000F018F9084B002B02D000E000BFFEE7CA
:1001600000F0B2FA00F0DAF9F9E7C046C00000008A
:10017000E4000000FC0000000000000010B5064C88
:100180002378002B07D1054B002B02D0044800E058
:1001900000BF0123237010BD3005001000000000D7
:1001A00030090000084B10B5002B03D00749084860
:1001B00000E000BF07480368002B00D110BD064BCC
:1001C000002BFBD09847F9E7000000003405001031
:1001D0003009000030050010000000000022034B31
:1001E00018645A6401325A647047C0460080044063
:1001F0000022034B18675A6701325A677047C0469E
:1002000000800440032100B5244A83B0136F0B40E3
:10021000022B1FD0032B0ED0012B02D0204803B09D
:1002200000BD136C1940012929D003292AD00029C7
:10023000F4D00020F3E79168126C1340012B16D024
:10024000032B22D0002BF4D11F20154B0840013086
:100250005843E4E71F21536ADA051940120F114B86
:10026000920001314900D05800F0A2F9D7E71F20D1
:100270000D4B08401B68013001935843CFE70A4BF0
:100280001868CCE7094B1868C9E71F20074B0840DE
:100290001B68013001935843C1E7C0460080044009
:1002A000001BB700BC0800000409000000090000A2
:1002B00010B5FFF7A7FF024B996F00F079F910BD59
:1002C0000080044001290ED0002909D0022905D15F
:1002D000012A04D93C3292008018436070473C32B6
:1002E00092001350FAE7183292001350F6E7C04616
:1002F0008E22054992008B581843044B1840C8239E
:100300001B0218438850704700800440FF250000FE
:100310008E2110B5054C89006358054A13400240F0
:100320009343C82212021343635010BD008004405F
:10033000FF25000010B50220FFF7EAFF0020FFF7BD
:100340004DFF03220D4980200B690D4C9343013A68
:1003500013430B61FFF7CCFF23238020A360FFF73B
:10036000D7FF22000121D3681942FCD00122044B9F
:1003700003209A67FFF73CFF10BDC04600C0034052
:100380000080044010B5FFF7D5FF10BD0C4B98421C
:100390000DD00C4B98420DD080230B4A9B0090420D
:1003A0000AD080220949885803438B507047802324
:1003B000DB00F6E78023F4E7013BFF3BF1E7C046B3
:1003C0000080014000C00040000001400080044067
:1003D00070B5FFF76DFF0500074C2068FFF7D6FFEB
:1003E0002800064900F0E4F801232468E060626810
:1003F0001343636070BDC0460001001040420F000F
:1004000001221E4B10B51B6819680A421BD08020C0
:10041000A0211A601A4A40020906885019481A4950
:100420000278002A1BD10A8892B2541EA4B20C8012
:100430009A61164A0C88128894421BD00A88002AB6
:1004400001D101320270022219680A4206D01A60F4
:100450008021A0220E4B49021206D15010BD0A88FD
:1004600092B2541CA4B20C809A61084A0C8812887B
:100470009442E3D100220270E0E7C0460001001080
:1004800008220000060100104C05001004010010B5
:100490008822000080234021F0B546464F461C4A82
:1004A000C0B4D05883B001438020D150D15840020D
:1004B000014301ADD15028000422164900F028F96B
:1004C00080239B019946012300269846AB19AC5D19
:1004D0005F78210080233A000F48FFF7F3FEA02247
:1004E0004146120694464A46B940A30063449A58CE
:1004F00064010A4349465A50434664440236E35570
:10050000042EE3D103B00CBC90469946F0BDC04622
:1005100000800440FC08000000400440F8B562B6CA
:10052000FFF756FF164A174B12881B6892B2DA6122
:100530001022596980250A435A61082259694F27B8
:100540000A435A6100229A61596901320A435A6189
:1005500080220D4BD2021A60FFF79CFFA021AA2433
:1005600055200A4B0A4E0B4A09062D02002B04D1D6
:10057000CB55064B8D5194609060013BF6E7C04629
:10058000040100100001001000E100E040420F00F3
:100590000823000000400040FEE7C046FEE7C046DA
:1005A000FEE7C046FEE7C046FEE7C046FEE7C0469F
:1005B000002243088B4274D303098B425FD3030AA2
:1005C0008B4244D3030B8B4228D3030C8B420DD3B5
:1005D000FF22090212BA030C8B4202D31212090243
:1005E00065D0030B8B4219D300E0090AC30B8B4281
:1005F00001D3CB03C01A5241830B8B4201D38B032F
:10060000C01A5241430B8B4201D34B03C01A5241D3
:10061000030B8B4201D30B03C01A5241C30A8B4216
:1006200001D3CB02C01A5241830A8B4201D38B0201
:10063000C01A5241430A8B4201D34B02C01A5241A5
:10064000030A8B4201D30B02C01A5241CDD2C30917
:100650008B4201D3CB01C01A524183098B4201D393
:100660008B01C01A524143098B4201D34B01C01A7E
:10067000524103098B4201D30B01C01A5241C308F6
:100680008B4201D3CB00C01A524183088B4201D365
:100690008B00C01A524143088B4201D34B00C01A51
:1006A0005241411A00D20146524110467047FFE7BD
:1006B00001B5002000F006F802BDC0460029F7D0C1
:1006C00076E770477047C04670B50D4E0D4D00245B
:1006D000AD1BAD1005D0A300F35801349847A542D7
:1006E000F9D100F015F9084E084D0024AD1BAD10EE
:1006F00005D0A300F35801349847A542F9D170BD45
:100700001C0900001C0900001C090000240900004D
:1007100070B50F2A32D90C0004430B00A40731D165
:1007200015000400103D2D0901352D0149191E68E1
:1007300026605E6866609E68A660DE681033E660CC
:1007400010349942F3D10F2345191340032B1BD9C1
:100750001C1F0023A4080134A400CE58EE5004331B
:100760009C42FAD103232D1909191A4005D0002300
:10077000CC5CEC5401339A42FAD170BD0500002ADA
:10078000F5D1FAE70500F2E71A00F8E7034B10B5D8
:10079000002B02D0024800F005F810BD0000000058
:1007A000B507000010B5010000230022002000F072
:1007B0001BF810BD70B5094B094CE41AA41009D000
:1007C000084AA518AD00ED182B68013C9847043D78
:1007D000002CF9D100F0A6F870BDC0460000000062
:1007E00000000000FFFFFF3FF8B544465F46564655
:1007F0004D469B462F4BF0B41C68A4235B000500BC
:10080000E0580E00904600284BD043681F2B0DDCAB
:100810005C1C002D21D102339B0044601E5000203F
:100820003CBC90469946A246AB46F8BD224B002BF5
:100830003CD0C820400000E000BF002836D0A422F1
:1008400000235200A15843600160A0504032835001
:10085000043283500124002DDDD09A00914681445A
:10086000424688214F467A50C42252009046804426
:1008700042468739994012688A460A43944642465E
:1008800061461160842249465F4652008F50022D16
:10089000C1D1020055468D32FF3211680D431560FB
:1008A000B9E720004D30FF30E050AEE70120404274
:1008B000B6E7C0460C090000000000000000000080
:1008C000C027090090051000C05C1500F0B31A00A5
:1008D000200B2000009F2400E0322900C0C62D001C
:1008E00050973100E06735007038390000093D004D
:1008F0004016400080234300C0304600020F021023
:1009000000800000001BB700430000000801001039
:10091000F8B5C046F8BC08BC9E4670478D0700007D
:10092000A5010000F8B5C046F8BC08BC9E4670475B
:1009300000400140D00701FF00000000F403001058
:100940005C040010C404001000000000000000005F
:100950000000000000000000000000000000000097
:100960000000000000000000000000000809000076
:100970000000000000000000000000000000000077
:100980000000000000000000000000000000000067
:100990000000000000000000000000000000000057
:1009A0000000000000000000000000000000000047
:1009B0000000000000000000000000000000000037
:1009C0000000000000000000000000000000000027
:1009D0000000000000000000000000000000000017
:1009E00001000000000000000E33CDAB34126DE6B4
:1009F000ECDE05000B00000000000000000000001D
:100A000000000000000000000000000000000000E6
:100A100000000000000000000000000000000000D6
:100A200000000000000000000000000000000000C6
:100A300000000000000000000000000000000000B6
:04000003000000FDFC
:00000001FF
