:1000000000800010FD0000007D1A0000851A00002D
:1000100000000000000000000000000000000000E0
:10002000000000000000000000000000A51A000011
:100030000000000000000000B51A0000BD1A00001A
:10004000C51A0000C51A0000C51A0000C51A000034
:10005000C51A0000C51A0000C51A0000C51A000024
:10006000C51A0000C51A0000C51A0000C51A000014
:10007000C51A0000C51A0000C51A0000C51A000004
:10008000C51A0000C51A0000E9160000C51A0000D4
:10009000C51A0000C51A0000C51A0000C51A0000E4
:1000A000C51A0000C51A0000C51A0000C51A0000D4
:1000B000C51A0000C51A0000C51A000000000000A3
:1000C00038220000000100103C040000382200002B
:1000D0000000002000000000382200000040002046
:1000E00000000000440500102C000000000000206B
:1000F00000000000004000200000000080B584B037
:1001000000AF1F4BFB6014E0FB681A1DFA601B6810
:10011000BB60FB681A1DFA601B687B60FB681A1DD8
:10012000FA601B683B603A687968BB68180001F0A8
:100130006BFCFA68134B9A42E6D30FE0FB681A1D7A
:10014000FA601B687B60FB681A1DFA601B683B60E5
:100150003A687B681100180001F076FCFA680A4BD7
:100160009A42EBD300F07CFF084B002B02D000E05A
:1001700000BF03E001F05CFE01F024FCFEE7C04696
:10018000C0000000E4000000FC00000000000000CF
:1001900010B5064C2378002B07D1054B002B02D05D
:1001A000044800E000BF0123237010BD4405001087
:1001B000000000002C220000084B10B5002B03D0DB
:1001C0000749084800E000BF07480368002B00D13A
:1001D00010BD064B002BFBD09847F9E7000000004C
:1001E000480500102C22000040050010000000000F
:1001F000164B002B00D1144B9D46402292029A1AB6
:10020000924600218B460F461348144A121A01F0F9
:1002100071FE0F4B002B00D098470E4B002B00D0E7
:1002200098470020002104000D000D48002802D04E
:100230000C4801F02FFF01F0FBFD2000290001F028
:10024000C1FB01F0E5FDC046000008000000000011
:100250000000000000000000E4000000FC000000BE
:1002600095200000A520000080B582B000AF0200FC
:10027000FB1D1A70BB1D0A1C1A70084BFA1D127860
:100280001F211140BA1D12785201602002400A431A
:100290001A61C046BD4602B080BDC0460080044021
:1002A00080B500AF044B5B69012213405A1E934195
:1002B000DBB21800BD4680BD0080044080B582B02E
:1002C00000AF0200FB1D1A700749074A8023D3586C
:1002D000FA1D1278012090400200134380228B50B7
:1002E000C046BD4602B080BD0080044080B500AF6E
:1002F00000F0E8FA0200024B1A60C046BD4680BD1D
:100300006405001080B500AF012000F0CBF9012199
:100310000320FFF7A9FF80235B00180000F0D0FD49
:10032000C046FFF7BDFF03001A0001235340DBB2B4
:10033000002BF6D10121002000F0E0F90E20FFF79C
:10034000BDFF1B20FFF7BAFF8023DB00180000F081
:10035000B7FDC046BD4680BD80B582B000AF02008B
:10036000FB1D1A70074B074A5268F91D09780120D6
:1003700088400100C9430A405A60C046BD4602B0E9
:1003800080BDC0460080044080B582B000AF02004E
:10039000FB1D1A70064B064A5268F91D09780120A8
:1003A000884001000A435A60C046BD4602B080BD85
:1003B0000080044080B582B000AF0200FB1D1A70BF
:1003C000FB1D1B781800FFF7C7FFFB1D1B781800EB
:1003D000FFF7DAFFC046BD4602B080BD80B582B0EF
:1003E00000AF0200FB1D1A700449FB1D1B78A02200
:1003F0008B50C046BD4602B080BDC0460080044060
:1004000080B500AF024AA023D3581800BD4680BD76
:100410000080044080B582B000AF0200FB1D1A705E
:100420000449FB1D1B78F0228B50C046BD4602B02C
:1004300080BDC0460080044080B500AF024AF02372
:10044000D3581800BD4680BD0080044080B582B0FE
:1004500000AF0200FB1D1A700449FB1D1B78F4223B
:100460008B50C046BD4602B080BDC04600800440EF
:1004700080B500AF024AF423D3581800BD4680BDB2
:100480000080044080B500AF024B1B681800BD46D9
:1004900080BDC046F021000080B500AF014B1800C0
:1004A000BD4680BD001BB70080B500AF024B1B6886
:1004B0001800BD4680BDC046F421000080B584B060
:1004C00000AF78607B685B09DAB20F23FB180F215D
:1004D0000A401A707B681F221340BB600F23FB1871
:1004E0001A78074B9200D258BB6801335B001900A1
:1004F000100001F0F7FA03001800BD4604B080BDFB
:10050000B021000080B584B000AF786039607B68AE
:100510001F2213400133FB603B68FA685343180005
:10052000BD4604B080BDC046B0B588B000AFFFF78F
:1005300067FF03007B617B69002B04D1002300244B
:10054000BB61FC612CE000F08DF9030079691800B3
:1005500001F0C8FA0300BB610023FB61FFF76CFFE9
:1005600003003B613B69FF2B1AD1FFF781FF0300BA
:10057000FB60BB691B0EFA6915021D43BB691C02B7
:10058000FB680133FF333B6000237B603A687B6884
:100590002000290001F032FB03000C00BB61FC616C
:1005A000BB691800BD4608B0B0BDC04680B586B076
:1005B00000AF78600A00FB1C1A7000F053F90300CA
:1005C0003B617968386901F08DFA03007B617B69D2
:1005D000002B01D101237B617B69DBB21800FFF79F
:1005E000FDFEFB1C1B78002B17D00420FFF7E2FE5A
:1005F000FF20FFF70FFF7969386901F073FA0300F4
:100600001B027968180001F06DFA0300FB60FB68BB
:10061000DBB21800FFF71AFF02E00020FFF7FAFE36
:10062000FFF782FF03001800BD4606B080BDC0463C
:1006300080B582B000AF0200FB1D1A70064BFA1D98
:1006400012781A64044B00225A64034B01225A6444
:10065000C046BD4602B080BD0080044080B584B075
:1006600000AF0200FB1D1A70BB1D0A1C1A7000238C
:10067000FB60FB1D1B78002B03D0FB68012213439A
:10068000FB60BB1D1B78002B03D0FB6802221343C9
:10069000FB60034BFA681A62C046BD4604B080BDD9
:1006A0000080044080B582B000AF0200FB1D1A70CC
:1006B000064BFA1D12789A64044B0022DA64034B4D
:1006C0000122DA64C046BD4602B080BD008004400D
:1006D00080B582B000AF0200FB1D1A70064BFA1DF8
:1006E00012781A67044B00225A67034B01225A679B
:1006F000C046BD4602B080BD0080044080B582B0D7
:1007000000AF02003960FB1D1A700A49FB1D1B78FF
:10071000C0228B50074AC4230021D150054AC4236C
:100720000121D1500349C8223B688B50C046BD46C9
:1007300002B080BD0080044080B582B000AF0200EE
:100740003960FB1D1A700A49FB1D1B78E0228B5093
:10075000074AE4230021D150054AE4230121D15066
:100760000349E8223B688B50C046BD4602B080BDBD
:100770000080044080B500AF044B5B6A1800FFF7AF
:100780009DFE03001800BD4680BDC04600800440A9
:1007900080B582B000AF104B1B6C1A0003231340CE
:1007A000012B08D0032B0BD0002B0ED1FFF774FECA
:1007B00003007B600BE0FFF765FE03007B6006E053
:1007C000FFF772FE03007B6001E000237B607B6823
:1007D0001800BD4602B080BD00800440B0B500AF37
:1007E000064B9C68FFF7D4FF030019002000FFF7B9
:1007F00089FE03001800BD46B0BDC046008004401D
:1008000080B582B000AF0D4B9B6C1A0003231340E0
:1008100002D0012B05D009E0FFF73EFE03007B600C
:1008200006E0FFF72FFE03007B6001E000237B6002
:100830007B681800BD4602B080BDC0460080044001
:10084000B0B500AF064B1C69FFF7DAFF03001900D3
:100850002000FFF757FE03001800BD46B0BDC0469C
:100860000080044080B582B000AF00237B60144B51
:100870001B6F1A0003231340012B0DD002DC002B49
:1008800005D018E0022B0CD0032B0FD013E0FFF79C
:1008900003FE03007B600EE0FFF77AFF03007B603E
:1008A00009E0FFF767FF03007B6004E0FFF796FFB6
:1008B00003007B60C0467B681800BD4602B080BD67
:1008C0000080044080B500AFFFF7CCFF0200054B6D
:1008D0009B6F1900100001F005F903001800BD46D8
:1008E00080BDC0460080044080B582B000AF0200E9
:1008F000FB1D1A700749074A8023D358FA1D127846
:10090000012090400200134380228B50C046BD4618
:1009100002B080BD0080044080B582B000AF02000C
:10092000FB1D1A700849084A8023D358FA1D127813
:10093000012090400200D243134080228B50C046D9
:10094000BD4602B080BDC0460080044080B582B084
:1009500000AF786008001100FB1C021C1A70BB1C61
:100960000A1C1A70FB1C1A78FB1C19787B68802003
:100970000001844661448900C958BB1C1B780120D2
:100980009840030019437B6880200001844662443C
:100990009200D150C046BD4602B080BD80B582B045
:1009A00000AF786008001100FB1C021C1A70BB1C11
:1009B0000A1C1A70FB1C1A78FB1C19787B688020B3
:1009C0000001844661448900CB58B91C0978012094
:1009D00088400100C94319407B688020000184469B
:1009E00062449200D150C046BD4602B080BDC046B0
:1009F00080B584B000AFF8607A600B23FB180A1C46
:100A00001A700B23FB181A780B23FB181978FB6854
:100A100080200001844661448900C9587B681943DD
:100A2000FB6880200001844662449200D150C04699
:100A3000BD4604B080BDC04680B584B000AFF8604C
:100A40007A600B23FB180A1C1A700B23FB181A7808
:100A50000B23FB181978FB68802000018446614451
:100A60008900CB587968C9431940FB688020000190
:100A7000844662449200D150C046BD4604B080BD59
:100A800080B582B000AF78600620FFF72DFFC0462A
:100A9000BD4602B080BDC04680B582B000AF786070
:100AA0000620FFF739FFC046BD4602B080BDC046F4
:100AB00080B584B000AFF860B9601900FB1D1A70F2
:100AC000BB1D0A1C1A70BB1D1B78002B17D0FB68BE
:100AD000BA68802109018C4662449200D258FB1DFD
:100AE0001B78012199400B001A431100FB68BA687A
:100AF00080200001844662449200D15017E0FB68D8
:100B0000BA68802109018C4662449200D358FA1DCC
:100B10001278012191400A00D2431A401100FB686B
:100B2000BA6880200001844662449200D150C046D9
:100B3000BD4604B080BDC04680B584B000AFF8604B
:100B400008007A6019000B23FB18021C1A700A2394
:100B5000FB180A1C1A700A23FB181B78002B16D0EE
:100B60000B23FB181A780B23FB181978FB688020DD
:100B70000001844661448900C9587B681943FB68B9
:100B800080200001844662449200D15016E00B237D
:100B9000FB181A780B23FB181978FB6880200001DA
:100BA000844661448900CB587968C9431940FB6881
:100BB00080200001844662449200D150C046BD4668
:100BC00004B080BD90B583B000AF78600C00100019
:100BD0001900FB1C221C1A70BB1C021C1A707B1C07
:100BE0000A1C1A707B1C1B78002B08D0BB1C1A78BF
:100BF000FB1C19787B681800FFF7A8FE07E0BB1CF8
:100C00001A78FB1C19787B681800FFF7C7FEC046EE
:100C1000BD4603B090BDC04680B584B000AFF8605B
:100C200008007A6019000B23FB18021C1A700A23B3
:100C3000FB180A1C1A700A23FB181B78002B08D01B
:100C40007A680B23FB181978FB681800FFF7D0FEB1
:100C500007E07A680B23FB181978FB681800FFF788
:100C6000EBFEC046BD4604B080BDC04680B584B032
:100C700000AFF860080011007B600B23FB18021C1A
:100C80001A700A23FB180A1C1A700B23FB181B7816
:100C9000012B0CD0022B13D0002B00D02AE00A230A
:100CA000FB181A78FB6892007968D15022E00A2379
:100CB000FB181A78FB68183292007968D15019E055
:100CC0000A23FB181B78012B0BD90A23FB181B786E
:100CD000023BFA683E339B00D31804337A681A60EB
:100CE00007E00A23FB181A78FB683C329200796807
:100CF000D150C046C046BD4604B080BD90B587B057
:100D000000AFF860B9607A6000237B6115E07B6911
:100D10009B00BA68D31819787B699B00BA68D3180E
:100D20005C787B699B00BA68D3185B88F8682200FE
:100D3000FFF79CFF7B6901337B617A697B689A428C
:100D4000E5D3C046BD4607B090BDC04680B584B06F
:100D500000AF786008001100FB1C021C1A70BB1C5D
:100D60000A1C1A700023FB60FB1C1B78012B0BD0A4
:100D7000022B11D0002B00D025E0BB1C1A787B6819
:100D80009200D358FB601EE0BB1C1A787B681832B7
:100D90009200D358FB6016E0BB1C1B78012B0AD9CC
:100DA000BB1C1B78023B7A683E339B00D31804338C
:100DB0001B68FB6006E0BB1C1A787B683C32920023
:100DC000D358FB60C046FB681800BD4604B080BD28
:100DD00080B582B000AF786008001100FB1C021CD7
:100DE0001A70BB1C0A1C1A70FB1C1B78002B07D145
:100DF0000C49BB1C1A787B685E339B005A500DE08F
:100E00000849FB1C1B78013B5A01BB1C1B78D318FB
:100E100018331A007B685E339B005A50C046BD46AB
:100E200002B080BD0080044080B582B000AF786021
:100E300006497B684822134037221A438C239B00C3
:100E4000CA50C046BD4602B080BDC04600800440C6
:100E500080B582B000AF786006497B68064A1340CF
:100E6000802212011A438D239B00CA50C046BD4602
:100E700002B080BD00800440FF25000080B584B032
:100E800000AF78600C4A8E239B00D3580B4A134066
:100E9000FB607B68094A1340FA681343FB6006490C
:100EA000FB68C82212021A438E239B00CA50C04618
:100EB000BD4604B080BDC04600800440FF25000050
:100EC00080B584B000AF78600C4A8E239B00D35865
:100ED0000B4A1340FB607B68094A1340DA43FB6806
:100EE0001340FB600549FB68C82212021A438E2397
:100EF0009B00CA50C046BD4604B080BD008004407F
:100F0000FF25000080B582B000AF0200FB1D1A7003
:100F1000BB1D0A1C1A70084BFA1D12781F211140C4
:100F2000BA1D12785201602002400A439A60C046FE
:100F3000BD4602B080BDC0460080044080B500AF11
:100F4000044BDB68012213405A1E9341DBB21800A8
:100F5000BD4680BD0080044080B582B000AF78609F
:100F6000034B7A689A67C046BD4602B080BDC04652
:100F70000080044080B584B000AF0200FB1D1A70F1
:100F8000074B1B6903229343FB60054BFA1D117845
:100F9000FA680A431A61C046BD4604B080BDC04627
:100FA00000C0034080B500AF0220FFF789FF00209A
:100FB000FFF73EFB0220FFF7DDFF8020FFF75EFF1B
:100FC00001210320FFF79EFF8020FFF779FFC04635
:100FD000FFF7B4FF03001A0001235340DBB2002BDC
:100FE000F6D10120FFF7B8FF0320FFF771FBC046E1
:100FF000BD4680BD80B582B000AF2020FFF760FF06
:1010000000237B6002E07B6801337B607B68134ACE
:101010009342F8DD0120FFF70BFB0220FFF7AAFF48
:101020008020FFF72BFF01210320FFF76BFF8020BB
:10103000FFF746FFC046FFF781FF03001A000123B8
:101040005340DBB2002BF6D10120FFF785FF0320D0
:10105000FFF73EFBC046BD4602B080BDC30900009D
:1010600080B500AFFFF79EFFC046BD4680BDC046BD
:1010700080B582B000AF0200FB1D1A700749074A15
:101080008023D358FA1D12780120904002001343A8
:1010900080228B50C046BD4602B080BD0080044017
:1010A00080B582B000AF0200FB1D1A700849084AE3
:1010B0008023D358FA1D1278012090400200D243B9
:1010C000134080228B50C046BD4602B080BDC04652
:1010D0000080044080B584B000AF78607B68124A1D
:1010E000934204D10F23FB180A221A7015E07B6883
:1010F0000E4A934204D10F23FB1807221A700CE00A
:101100007B680B4A934204D10F23FB1808221A7004
:1011100003E00F23FB1809221A700F23FB181B781A
:101120001800BD4604B080BD0080014000C00040F2
:101130000000014080B582B000AF78607B68180085
:10114000FFF7C8FF03001800FFF792FFC046BD4637
:1011500002B080BD80B582B000AF78607B681800B7
:10116000FFF7B8FF03001800FFF79AFFC046BD461F
:1011700002B080BD80B584B000AF78607B685B68EA
:10118000FB607B6800225A607B6801229A607B6862
:1011900002225A60C0467B689B68002BFBD17B68AB
:1011A000FA685A60C046BD4604B080BD90B585B0AF
:1011B00000AF78600C0010001900FB1C221C1A7094
:1011C000BB1C021C1A707B1C0A1C1A707B1C1B782F
:1011D0005BB201229A407B1C1B785BB202335B003E
:1011E000032199400B001343FB607B68DB6BFA68BB
:1011F000D24313407A68D363BB60FB1C00229A562B
:101200007B1C1B785BB29A40BB681A43BB1C1978E5
:101210007B1C1B785BB202335B0099400B001A43C6
:101220007B68DA63C046BD4605B090BD80B582B02C
:1012300000AF0200FB1D1A700749074A8023D358EC
:10124000FA1D1278012090400200134380228B5037
:10125000C046BD4602B080BD0080044080B582B06B
:1012600000AF0200FB1D1A700849084A8023D358BA
:10127000FA1D1278012090400200D24313408022D0
:101280008B50C046BD4602B080BDC04600800440C1
:1012900080B582B000AF78600F20FFF7C7FF7B6892
:1012A00000221A607B68FF225A607B68044A5A61F8
:1012B0007B68044A9A61C046BD4602B080BDC04604
:1012C000FF030000FFFFFF0080B582B000AF786031
:1012D0000F20FFF7C3FFC046BD4602B080BDC04629
:1012E00080B582B000AF786039603B68042213405B
:1012F00005D07B681B681B221A407B681A603B681C
:101300000822134005D07B681B6808221A437B68BB
:101310001A60C046BD4602B080BDC04680B582B0EE
:1013200000AF0200FB1D1A70064BFA1D1278110067
:101330001F220A40012191400A001A60C046BD46A2
:1013400002B080BD00E100E080B582B000AF0200D5
:10135000FB1D1A700749074A8023D358FA1D1278DB
:10136000012090400200134380228B50C046BD46AE
:1013700002B080BD0080044090B583B000AF7860BB
:101380000C0010001900FB1C221C1A70BB1C021C54
:101390001A703B000A1C1A803B001A881823FB189D
:1013A0001B7813431C00BB1C1A78FB1C1978786847
:1013B0002300FFF75BFCC046BD4603B090BDC046AE
:1013C00090B583B000AF78600C0010001900FB1CD2
:1013D000221C1A70BB1C021C1A707B1C0A1C1A707F
:1013E000FB1C1A78BB1C1B78791C087879685201A1
:1013F0008A18011CD154C046BD4603B090BDC046FA
:1014000080B582B000AF786008001100FB1C021CA0
:101410001A70BB1C0A1C1A70FB1C1A78FB1C19786A
:101420007B6880200001844661448900C958BB1C48
:101430001B7801209840030019437B68802000013D
:10144000844662449200D150C046BD4602B080BD81
:1014500080B582B000AF786008001100FB1C021C50
:101460001A70BB1C0A1C1A70FB1C1A78BB1C1B7858
:10147000012199400B0019007B68882000018446F7
:1014800062449200D150C046BD4602B080BDC04605
:1014900080B582B000AF786008001100FB1C021C10
:1014A0001A70BB1C0A1C1A70FB1C1A78BB1C1B7818
:1014B000012199400B0019007B688A2000018446B5
:1014C00062449200D150C046BD4602B080BDC046C5
:1014D00080B582B000AF78600A00FB1C1A707B6890
:1014E0001B68FA1C127811000F220A40012191405A
:1014F0000A0013405A1E9341DBB21800BD4602B0E9
:1015000080BDC04680B582B000AF78600A00FB1C89
:101510001A70FB1C1B785BB201229A4013001A0060
:101520007B681A60C046BD4602B080BD80B582B0FF
:1015300000AF78607B685B6801221A437B685A6061
:10154000C046BD4602B080BD80B582B000AF7860B5
:101550007B689B681800BD4602B080BD80B582B034
:1015600000AF786039607B683A68DA60C046BD4693
:1015700002B080BD80B584B000AFF8607A600B2304
:10158000FB180A1C1A700B23FB1800229A56FB68E2
:10159000063292007968D150C046BD4604B080BD85
:1015A00080B582B000AF78600A00FB1C1A707B68BF
:1015B0005969FB1C00229A5613005B009B180122FC
:1015C0009A4013000A001A437B685A61C046BD4620
:1015D00002B080BD80B582B000AF78600A00FB1C0D
:1015E0001A707B685969FB1C00229A5613005B0035
:1015F0009B18013301229A4013000A001A437B68AA
:101600005A61C046BD4602B080BDC04690B583B0A9
:1016100000AFFFF757F903007B600D4B1B68180004
:10162000FFF788FD0A4B1C687B680A49180000F028
:1016300059FA030019002000FFF790FF044B1B68C4
:101640001800FFF773FFC046BD4603B090BDC0460B
:101650000401001040420F0080B582B000AFBB1DF6
:1016600000221A803B1DFA2292001A80BB1C1C4AE1
:101670001A801C4B1868BB1C1B881A000121FFF73D
:1016800079FF184B1B6801211800FFF7A3FF154BCA
:101690001B6801211800FFF783FF124B1868BB1D60
:1016A0001B881A000021FFF765FF0E4B1B68002105
:1016B0001800FFF775FF0B4B18683B1D1B881A00BD
:1016C0000221FFF757FF074B1B6802211800FFF7A5
:1016D00067FF1220FFF722FEC046BD4602B080BD64
:1016E000204E00000401001080B582B000AFBB1D89
:1016F000FA22D2001A80494B1B6800211800FFF71C
:10170000E7FE031E3FD0A0231B0610220221180073
:10171000FFF79EFEA0231B06112202211800FFF7EF
:1017200097FE3E4B1B6800211800FFF7EBFE3B4B7A
:1017300018683B4B1B78DBB2002B07D0394B1B885A
:101740009BB25A1C91B2374A118006E0354B1B8878
:101750009BB25A1E91B2334A11801A000021FFF742
:1017600009FF304B1B889BB2BA1D12889A4202D1E6
:101770002B4B00221A702B4B1B889BB2002B02D1E3
:10178000274B01221A70254B1B6801211800FFF717
:101790009FFE031E21D0A0231B0610220221180049
:1017A000FFF776FEA0231B06112202211800FFF787
:1017B0006FFEA0231B060B2202211800FFF748FE34
:1017C000A0231B060C2202211800FFF741FE134B39
:1017D0001B6801211800FFF795FE104B1B680221C2
:1017E0001800FFF775FE031E13D0A0231B060B2263
:1017F00002211800FFF74CFEA0231B060C22022139
:101800001800FFF745FE054B1B6802211800FFF783
:1018100079FEC046BD4602B080BDC046040100103E
:10182000080100106005001080B500AF044B1B6874
:101830001800FFF789FE03001800BD4680BDC046B2
:101840000401001080B586B002AF0620FFF77CFDD2
:101850001020FFF779FD0823FA18574B10001900E4
:1018600006231A0000F008FB0F23FB1800221A7051
:1018700046E00F23FB181A780823FB185200D15CAE
:101880000F23FB181B780822BA185B00D31801330A
:101890001A784A48002300938023FFF76DFD0F2339
:1018A000FB181A780823FB185200D15C0F23FB1891
:1018B0001B780822BA185B00D31801331A78A023CA
:1018C0001B061800FFF79CFD0F23FB181A7808234E
:1018D000FB185200D15C0F23FB181B780822BA18A2
:1018E0005B00D31801331A78A02318060123FFF7F1
:1018F00067FD0F23FB181A780F23FB1801321A70AB
:101900000F23FB181B78022BB3D93A1D2C4B100068
:10191000190004231A0000F0AFFA0E23FB1800226E
:101920001A7040E00E23FB181A783B1D5200D15C60
:101930000E23FB181B783A1D5B00D31801331A786D
:101940001E48002300938023FFF716FD0E23FB188B
:101950001A783B1D5200D15C0E23FB181B783A1DF0
:101960005B00D31801331A78A0231B061800FFF779
:1019700047FD0E23FB181A783B1D5200D15C0E2345
:10198000FB181B783A1D5B00D31801331A78A0238B
:1019900018060123FFF714FD0E23FB181A780E23F7
:1019A000FB1801321A700E23FB181B78012BB9D9D2
:1019B000C046BD4604B080BDF82100000040044090
:1019C0000022000080B582B000AF62B6FFF71EFEB5
:1019D000FFF742FE0A4B7B60FFF726FF03006433EC
:1019E0001A00084B1A60FFF72DFF02E07B68013BED
:1019F0007B607B68002BF9D1014B7B60F5E7C0462B
:101A000040420F006C05001080B588B000AFF86050
:101A1000B9607A60BB68FB61FB68BB6100237B61D6
:101A20000AE0FB691A1DFA61BA69111DB9611268F1
:101A30001A607B6904337B617A697B689A42F0D3D0
:101A4000C046BD4608B080BD80B584B000AF7860A8
:101A500039607B68FB600023BB6007E0FB681A1DF0
:101A6000FA6000221A60BB680433BB60BA683B6846
:101A70009A42F3D3C046BD4604B080BD80B500AFE6
:101A8000FEE7C04680B500AFFEE7C04680B500AFB8
:101A9000FEE7C04680B500AFFEE7C04680B500AFA8
:101AA000FEE7C04680B500AFFEE7C04680B500AF98
:101AB000FEE7C04680B500AFFEE7C04680B500AF88
:101AC000FEE7C04680B500AFFEE7C04680B584B0F3
:101AD00000AFF860B9607A6000231800BD4604B01A
:101AE00080BDC046002243088B4274D303098B4259
:101AF0005FD3030A8B4244D3030B8B4228D3030CDE
:101B00008B420DD3FF22090212BA030C8B4202D37F
:101B10001212090265D0030B8B4219D300E0090AA7
:101B2000C30B8B4201D3CB03C01A5241830B8B42B0
:101B300001D38B03C01A5241430B8B4201D34B0399
:101B4000C01A5241030B8B4201D30B03C01A5241FE
:101B5000C30A8B4201D3CB02C01A5241830A8B4283
:101B600001D38B02C01A5241430A8B4201D34B026C
:101B7000C01A5241030A8B4201D30B02C01A5241D0
:101B8000CDD2C3098B4201D3CB01C01A5241830984
:101B90008B4201D38B01C01A524143098B4201D3BE
:101BA0004B01C01A524103098B4201D30B01C01AE9
:101BB0005241C3088B4201D3CB00C01A5241830863
:101BC0008B4201D38B00C01A524143088B4201D390
:101BD0004B00C01A5241411A00D2014652411046F0
:101BE0007047FFE701B5002000F006F802BDC046CF
:101BF0000029F7D076E770477047C046002B11D117
:101C0000002A0FD1002900D1002802D00021C943A9
:101C1000081C07B4024802A14018029003BDC04648
:101C2000D9FFFFFF03B4684601B5029800F006F83B
:101C3000019B9E4602B00CBC7047C046F0B54D46B5
:101C4000564644465F46F0B4924683B004000D0009
:101C500099468B422FD82CD04946504600F0AEF81A
:101C600029000600200000F0A9F8331A9846203B0E
:101C70009B4600D574E053465A4693401F00534696
:101C8000424693401E00AF4229D826D05B46A41B93
:101C9000BD41002B00DA79E000220023009201937D
:101CA00001235A46934001930123424693400093F7
:101CB00019E08242D0D900220023009201930C9BAC
:101CC000002B01D01C605D600098019903B03CBC02
:101CD00090469946A246AB46F0BDA342D6D9002213
:101CE0000023009201934346002BE8D0FB077208C3
:101CF0001A4346467B080EE0AB4201D1A2420CD803
:101D0000A41A9D41012024196D410021013E24188F
:101D10004D41002E06D0AB42EED9013E24196D4153
:101D2000002EF8D15B460098019900196941002BFB
:101D300022DB2B005A46D3402A004446E2401C00D6
:101D40005B461500002B2CDB26009E40330026004E
:101D50004746BE403200801A994100900191AEE79B
:101D6000424620239B1A5246DA40414613004A4617
:101D70008A4017001F4382E7424620239B1A2A000D
:101D800046469A402300F3401343D5E742462023BA
:101D900000219B1A0022009101920122DA40019257
:101DA00082E74246202326009B1ADE402F00B446DD
:101DB000974066463B003343C9E7C04610B500294B
:101DC00003D100F007F8203002E0081C00F002F810
:101DD00010BDC0461C2101231B04984201D3000CF6
:101DE00010391B0A984201D3000A08391B0998428E
:101DF00001D30009043902A2105C40187047C046A4
:101E000004030202010101010000000000000000C3
:101E100010B50021040000F0BFF8044B1868C36B34
:101E2000002B00D09847200000F0C0F908220000E5
:101E300070B50D4E0D4D0024AD1BAD1005D0A300A7
:101E4000F35801349847A542F9D100F0DFF9084E64
:101E5000084D0024AD1BAD1005D0A300F35801348C
:101E60009847A542F9D170BD182200001822000041
:101E7000182200002022000070B50F2A32D90C0071
:101E800004430B00A40731D115000400103D2D09B7
:101E900001352D0149191E6826605E6866609E68DE
:101EA000A660DE681033E66010349942F3D10F2348
:101EB00045191340032B1BD91C1F0023A408013410
:101EC000A400CE58EE5004339C42FAD103232D19BE
:101ED00009191A4005D00023CC5CEC5401339A4216
:101EE000FAD170BD0500002AF5D1FAE70500F2E746
:101EF0001A00F8E770B583073FD0541E002A3BD084
:101F0000CEB20300032503E0621E002C34D014007F
:101F100001335A1E16702B42F6D1032C24D9FF250B
:101F20000D402A0215432A0415430F2C11D926000F
:101F3000103E3609013636011A009B1915605560AE
:101F40009560D56010329342F8D10F221440032CD3
:101F50000AD9261FB6080136B6001A009B1920C2FE
:101F60009342FCD103221440002C05D0C9B21C19A5
:101F7000197001339C42FBD170BD14000300CCE703
:101F8000034B10B5002B02D0024800F083F810BDBF
:101F900000000000A5200000F0B55F4656464D4603
:101FA0004446F0B40F00394B85B01B680190029392
:101FB0004933FF330393A422029B52009E58002E04
:101FC0004ED0039B9946C4235B00984604339A463F
:101FD0007468B044A5007519B244013C08D52DE0E1
:101FE0006B1DFF331B689F4204D0043D013C25D389
:101FF000002FF5D173686A68013BA34239D00023F2
:102000006B60002AF1D0736841469B460123A340D0
:10201000096819422BD05146096819422BD12B006F
:10202000843319680198904773685B45C3D14B4668
:102030001B68B342BFD1043D013CD9D2144B002BE5
:102040000ED07368002B1BD13368002B1CD04A467E
:102050003000136000E000BF4B461E68002EB2D176
:1020600005B03CBC90469946A246AB46F0BD9047B1
:10207000DAE77460C5E72B00843318689047D3E72C
:102080003368B1461E00E9E70023FAE708220000A2
:102090000000000010B5010000230022002000F025
:1020A0001BF810BD70B5094B094CE41AA41009D0F7
:1020B000084AA518AD00ED182B68013C9847043D6F
:1020C000002CF9D100F0ACF870BDC0460000000053
:1020D00000000000FFFFFF3FF8B544465F4656464C
:1020E0004D469B462F4BF0B41C68A4235B000500B3
:1020F000E0580E00904600284BD043681F2B0DDCA3
:102100005C1C002D21D102339B0044601E50002036
:102110003CBC90469946A246AB46F8BD224B002BEC
:102120003CD0C820400000E000BF002836D0A422E8
:1021300000235200A15843600160A05040328350F8
:10214000043283500124002DDDD09A009146814451
:10215000424688214F467A50C4225200904680441D
:1021600042468739994012688A460A439446424655
:1021700061461160842249465F4652008F50022D0D
:10218000C1D1020055468D32FF3211680D431560F2
:10219000B9E720004D30FF30E050AEE7012040426B
:1021A000B6E7C0460822000000000000FEE7C04677
:1021B00000000000C027090090051000C05C150059
:1021C000F0B31A00200B2000009F2400E032290009
:1021D000C0C62D0050973100E067350070383900D7
:1021E00000093D004016400080234300C0304600F7
:1021F000001BB70000800000021102100212000054
:10220000020B020C4300000010010010F8B5C0469C
:10221000F8BC08BC9E467047811F0000B901000051
:0C222000F8B5C046F8BC08BC9E467047EC
:04222C0000000000AE
:08223000C0DFFF7F0100000088
:10223800000000000040014001FFFFFFFFFFFFFF1B
:1022480000000000FC03001064040010CC0400101F
:102258000000000000000000000000000000000076
:102268000000000000000000000000000000000066
:102278000000000004220000000000000000000030
:102288000000000000000000000000000000000046
:102298000000000000000000000000000000000036
:1022A8000000000000000000000000000000000026
:1022B8000000000000000000000000000000000016
:1022C8000000000000000000000000000000000006
:1022D80000000000000000000000000000000000F6
:1022E80000000000000000000100000000000000E5
:1022F8000E33CDAB34126DE6ECDE05000B000000AA
:1023080000000000000000000000000000000000C5
:1023180000000000000000000000000000000000B5
:1023280000000000000000000000000000000000A5
:102338000000000000000000000000000000000095
:0C26680000000000000000001001001045
:0426740091010000D0
:04267800000000005E
:04000003000000FDFC
:00000001FF
